:100000000C949F030C94C7030C94C7030C94C70370
:100010000C94C7030C94C7030C94C7030C94C70338
:100020000C94C7030C94C7030C94C7030C94C70328
:100030000C94C7030C94C7030C94C7030C94C70318
:100040000C940E0D0C94C7030C94DC0C0C94B60CA1
:100050000C94C7030C94C7030C94C7030C94C703F8
:100060000C94C7030C94C70300000000250028006F
:100070002B0000000000240027002A0000000000E0
:1000800023002600290004040404040404040202DA
:100090000202020203030303030301020408102007
:1000A0004080010204081020010204081020000012
:1000B0000008000201000003040700000000000027
:1000C0000000000003120101000000000000000019
:1000D0000000000000000000000000000000000020
:1000E00000000000000100084512000101040100A9
:1000F0000000000000000000000000000000000000
:1001000000000000000000007B2254223A332C2221
:1001100041223A302C224D223A5B312C322C392CA0
:10012000372C36372C3233302C3135352C323135B3
:100130005D7D000000000000000001000440C01BC5
:100140001B00000000000000000000000000000094
:100150000000000000000000000000000001000896
:100160004512000100040000000000000000000033
:10017000000000000000000000000000000000007F
:1001800001000437920001000000000000000000A0
:10019000000000000000000000000000000000005F
:1001A000000000010004379201010000000000007F
:1001B000000000000000000000000000000000003F
:1001C00000000000000001000340C000000000002B
:1001D000000000000000000000000000000000001F
:1001E00000000000000000000001000540060200C1
:1001F00002000000000000000000000000000000FD
:1002000000000000000000000000000001000540A8
:1002100006020001000000000000000000000000D5
:1002200000000000000000000000000000000001CD
:100230000004401202000000000000000000000066
:1002400000000000000000000000000000000000AE
:1002500000000100034083000000000000000000D7
:10026000000000000000000000000000000000008E
:100270000000000000010003400600000000000034
:10028000000000000000000000000000000000006E
:1002900000000000000000000100186042000000A3
:1002A00000330000010B0BB00100060010001E20FF
:1002B000111300000000000000000001001860425F
:1002C00000000000330000010B0BB001000600101D
:1002D000001E2011120000000000000000000100BC
:1002E00018604200000100330000010B0BB0010058
:1002F000060010001E201111000000000000000088
:1003000000010018604200000100330000010B0BE7
:10031000B00100060010001E402224000000000072
:1003200000000000010018604200000100330000DE
:10033000010B0BB0010006001000001011110000AD
:100340000000000000000001000213FF0000000098
:10035000000000000000000000000000000000009D
:1003600000000000000000000000000018604200D3
:10037000200100330000010B0BB001000100100050
:100380001E0066680000000000000000000100116F
:100390006042021101B001B001B001B001B001B082
:1003A000010000000000000000000000000000004C
:1003B000010018604200FF0000330000010B0BB089
:1003C0000100060010000000000000000000000016
:1003D00000000001000A70423622280200047F0853
:1003E000000000000000000000000000000000000D
:1003F000000000000000010004D0310B00000000EC
:1004000000000000000000000000000000000000EC
:1004100000000000000000000001000511000101C3
:10042000420000000000000000000000000000008A
:1004300000000000000000000000000001000711A3
:1004400000010392859300000000000000000000FE
:100450000000000000000000000000000000000B91
:100460000E2000110109070702060B438384C00018
:10047000000000000000000000000000000000007C
:1004800000020C0F20011114000103928593260035
:100490000101420000000000000000000000000018
:1004A00000000000020411200211060600010201F2
:1004B00006010B01430142010000000000000000A2
:1004C00000000000000000021C0C60C0000EFF00D5
:1004D000000000000000000000000000000000001C
:1004E00000000000000000000000041C0C60C000C0
:1004F00006FF0000000000000000000000000000F7
:1005000000000000000000000000000000041A0CC1
:1005100060C0004FFF00000B000B00000000000057
:1005200000000000000000000000000000000000CB
:10053000041A0C60C00047FF00000B000B00000015
:1005400000000000000000000000000000000000AB
:10055000000000041A0C60C0004EFF00000B000BEE
:10056000000000000000000000000000000000008B
:10057000000000000000041B0C60C0004FFF0000E2
:100580000000420000000000000000000000000029
:1005900000000000000000000080001B0C60C00094
:1005A00006FF000000004200000000000000000004
:1005B0000000000000000000000000000080001BA0
:1005C0000C60C00047FF0000000042000000000077
:1005D000000000000000000000000000000000001B
:1005E00000800006034042100000000000000000F0
:1005F00000000000000000000000000000000000FB
:10060000000000000007034042000000000000005E
:1006100000000000000000000000000000000000DA
:100620000000000000000008053042020100000048
:1006300000000000000000000000000000000000BA
:10064000000000000000000000080440220100003B
:10065000000000000000000000000000000000009A
:10066000000000000000000000000002011F000068
:10067000000000000000000000000000000000007A
:100680000000000000000000000000000009085009
:10069000024242480000000000000000000000008C
:1006A0000000000000000000000000000000000A40
:1006B000085002424232000000000000000000002A
:1006C000000000000000000000000000000000002A
:1006D000000106D03285000101000000000000008A
:1006E000000000000000000000000000000000000A
:1006F0000000000106D0328500010000000000006B
:1007000000000000000000000000000000000000E9
:1007100000000000000303100001000000000000C2
:1007200000000000000000000000000000000000C9
:1007300000000000000000020000770D580D112499
:100740001FBECFEFD8E0DEBFCDBF11E0A0E0B1E02B
:10075000E0E9F4E302C005900D92AA35B107D9F79C
:1007600023E0AAE5B1E001C01D92AF3CB207E1F77A
:1007700013E0CEE9D3E004C02197FE010E945D1989
:10078000CD39D107C9F70E94270E0C943B1A0C945F
:100790000000E2E1F2E0A089B18982E08C93A485B7
:1007A000B5851C92A685B7851C92108EA489B58943
:1007B00086E08C93A289B3898C9180618C93A28905
:1007C000B3898C9188608C93A289B3898C9180685D
:1007D0008C930288F389E02D80818F7D808308953A
:1007E0008CBD9DBD0895382F1092AA034FB7F89481
:1007F00090E080E051E016BC4F990AC026B5213642
:10080000D8F381E0809376034FBF90E080E00895B5
:1008100016BC4F99FECF880F991F26B5293330F4A7
:1008200081602091AA0325272093AA03315019F74C
:100830004F9903C026B52234D8F34FBF089516BC94
:100840005E98882341F086B58832E8F35E9A86B5D3
:100850008D34E8F3089586B58A34E8F3F7CFEF9244
:10086000FF920F931F93CF93DF931091840370E057
:10087000A1E0B0E0FC013196E4911E1323C0FC011D
:10088000B296E4914E2F50E030E020E0EC01229649
:10089000211720F5FD01022E02C0EE0FFF1F0A9462
:1008A000E2F7E423F523EF2B51F4FE01E20FF31FEF
:1008B0000491F901EA58FC4FF784F01203C02F5F4E
:1008C0003F4FE6CF7F5F84966713D4CF80E0DF9100
:1008D000CF911F910F91FF90EF900895FC018491AB
:1008E000F6CF4091840320E0FC013196E4914E1351
:1008F0000EC0A5E8B3E0FC01329630E04317B1F03A
:100900007D9154913196751302C03F5FF7CF2F5FF1
:1009100082966213E9CF80917803909179038033B6
:10092000924011F080E008958EE10895FC018491D9
:100930000895CF93DF937091840330E0DC019296A9
:10094000FD0124917217A0F020E0FD0144912417CD
:10095000B8F4422F50E0FA013296E80FF91FE49103
:100960004A585C4FEA014F854E1302C02F5FEDCF0E
:100970003F5F83966313E2CF80E0DF91CF910895CC
:10098000FC018491FACF80917703811104C00E9409
:100990001F0481E0089592E095BD16BC5E9896B55F
:1009A0009832E8F35E9A96B59832E8F34F9B06C00A
:1009B00096B59132D8F34F99FECF089580E008950F
:1009C0001092AA033FB792E095BD98E041E016BCB3
:1009D0005E9887FF11C02091AA0324272093AA03C1
:1009E00026B52832E8F35E9A26B52D34E8F3880F51
:1009F000915069F73FBF089526B52A34E8F3F3CF45
:100A00009C011092AA034FB782E085BD9CE051E0A3
:100A100016BC5E9833FF12C08091AA03852780938D
:100A2000AA0386B58832E8F35E9A86B58D34E8F37A
:100A3000220F331F915061F74FBF089586B58A3456
:100A4000E8F3F2CFFC01249131E0211101C030E044
:100A50003093770340917C0350917D035093790349
:100A600040937803211117C02FEF3FE030937B03B1
:100A700020937A03FC0132962491209384030396F9
:100A8000A5E8B3E030E0231759F0FC0144914D9301
:100A90003F5F0196F8CF2091820330918303E6CF28
:100AA0000895FC01249131E0211101C030E0309320
:100AB00077037093790360937803211117C02FEFA8
:100AC0003FE030937B0320937A03FC01329624911C
:100AD000209384030396A5E8B3E030E0231759F090
:100AE000FC0144914D933F5F0196F8CF2091820322
:100AF00030918303E6CF0895AF92BF92CF92DF92F9
:100B0000EF92FF920F931F93CF93DF936C017B01C2
:100B10008B01040F151FEB015E01AE18BF08C01753
:100B2000D10759F06991D601ED91FC910190F081C6
:100B3000E02DC6010995892B79F7C501DF91CF9189
:100B40001F910F91FF90EF90DF90CF90BF90AF90EB
:100B50000895FC01538D448D252F30E0842F90E0C3
:100B6000821B930B541718F081509F4F08950197E3
:100B70000895FC01918D828D981761F0A28DAE0FC2
:100B8000BF2FB11D5D968C91928D9F5F9F73928F49
:100B900090E008958FEF9FEF0895FC01918D828D75
:100BA000981731F0828DE80FF11D858D90E0089542
:100BB0008FEF9FEF0895FC01918D228D892F90E09A
:100BC000805C9F4F821B91098F739927089582E162
:100BD00092E00E94DB0521E0892B09F420E0822FBE
:100BE000089580E090E0892B29F00E94E7058111AB
:100BF0000C9400000895FC01A48DA80FB92FB11D1D
:100C0000A35ABF4F9C91848D8F5F848FA689B7892B
:100C10009C93A089B1898C91837080648C93938D0F
:100C2000848D981306C00288F389E02D80818F7D22
:100C3000808308950F931F93CF93DF93EC0181E09E
:100C4000888F9B8D8C8D981318C0E889F9898081D5
:100C500085FF13C09FB7F894EE89FF896083E88908
:100C6000F98980818370806480839FBF81E090E0F8
:100C7000DF91CF911F910F910895062F1B8D1F5F5C
:100C80008C8D81130CC00FB607FCFACFE889F98967
:100C9000808185FFF5CFCE010E94FB05F1CFEB8D62
:100CA000EC0FFD2FF11DE35AFF4F00839FB7F8941F
:100CB0001B8FEA89FB8980818062D6CFCF93DF9337
:100CC000EC01888D8823B9F0AA89BB89E889F98964
:100CD0008C9185FD03C0808186FD0DC00FB607FC99
:100CE000F7CF8C9185FFF2CF808185FFEDCFCE01CC
:100CF0000E94FB05E9CFDF91CF91089582E192E058
:100D00000E945E06E2E1F2E0A289B3898C918F7EB7
:100D10008C93A289B3898C91877F8C93A289B389A4
:100D20008C918F778C93A289B3898C918F7D8C93D2
:100D3000828D818F0895833081F028F4813099F07D
:100D40008230A9F008958730A9F08830C9F0843046
:100D5000B1F4809180008F7D03C0809180008F77F7
:100D600080938000089584B58F7784BD089584B5FD
:100D70008F7DFBCF8091B0008F778093B000089576
:100D80008091B0008F7DF9CF1F93CF93DF93282FF1
:100D900030E0F901E255FF4F8491F901E656FF4F2B
:100DA000D491F901EA57FF4FC491CC23A9F0162F33
:100DB00081110E949B06EC2FF0E0EE0FFF1FE85917
:100DC000FF4FA591B4918FB7F894EC91111108C021
:100DD000D095DE23DC938FBFDF91CF911F910895D3
:100DE000DE2BF8CFCF93DF9390E0FC01E656FF4F68
:100DF00024918A579F4FFC0184918823D1F090E081
:100E0000880F991FFC01EE58FF4FA591B491FC018A
:100E1000E859FF4FC591D49161110EC09FB7F89466
:100E20008C91E22FE0958E238C932881E223E88336
:100E30009FBFDF91CF9108958FB7F894EC91E22B8B
:100E4000EC938FBFF6CF08958EBD00000DB407FE62
:100E5000FDCF8EB508951F93CF93DF93182F80E5B4
:100E600091E00E94F003CBEAD3E060E088890E9421
:100E7000C40683E00E942407812F0E94240780E09B
:100E80000E942407182F61E088890E94C406812FE0
:100E9000DF91CF911F910895FF920F931F93CF93EE
:100EA000DF93F82E062F142F80E591E00E94F003C7
:100EB000CBEAD3E060E088890E94C40685E00E9406
:100EC00024078F2D0E942407802F0E942407812F42
:100ED0000E94240761E08889DF91CF911F910F91D3
:100EE000FF900C94C406CF93C82F482F60EE8FE07C
:100EF0000E944C078FE00E942B07982F907E81E084
:100F00009C1301C080E0CF910895FF920F931F932F
:100F1000CF93DF93C82FF62E172F042F80E591E093
:100F20000E94F00360E08091BB030E94C40682E04F
:100F30000E9424078C2F0E942407CF2DD12F0C0F45
:100F40001D2F111DC017D10721F089910E94240780
:100F5000F9CF61E08091BB03DF91CF911F910F9199
:100F6000FF900C94C406CF93DF9300D000D0CDB790
:100F7000DEB79A01442755271C821B82922F6130CD
:100F8000C1F4990F990F990F98609A8345E03695AF
:100F900027954A95E1F7298344E0BE016F5F7F4FB3
:100FA0000E9485070F900F900F900F90DF91CF91C7
:100FB00008959295990F907E9A8393E036952795A0
:100FC0009A95E1F7E8CFCF93C82F80E80E94730786
:100FD000811131C020E030E0A90160E080E1C33040
:100FE00019F1A0F420E030E0A90160E084E0C13014
:100FF000D9F020E030E0A90160E088E0C230A1F043
:1010000020E030E0A90160E080E00EC020E030E0A8
:10101000A90160E084E1C43039F020E030E0A901AA
:1010200060E088E1C53061F70E94B3078091BC039E
:10103000CF910C947307CF9108950F931F93CF9383
:10104000DF93082F162F80E591E00E94F003CBEA92
:10105000D3E060E088890E94C40682E00E942407F1
:10106000802F0E942407812F0E94240761E0888935
:10107000DF91CF911F910F910C94C4064F925F9214
:101080006F928F929F92AF92BF92CF92DF92FF9218
:101090000F931F93CF93DF9300D000D0CDB7DEB76F
:1010A000B12CA12C409006015090070160900801DE
:1010B0004E0184E0880E911C49825A826B82FE01A7
:1010C00031966F01FE2E0D2DF60111916F01812FCA
:1010D0000E942B0783FD0DC01F5F80E0FFEFAF1A5A
:1010E000BF0A823061F482E3A816B10429F796E0C2
:1010F00072C0C814D90441F710E082E0EFCF92E348
:10110000A916B104A1F34091B00361EB73E085E04F
:10111000810F0E9485078091B903813029F4809165
:10112000B00380648093B0036091B00384E0810FCA
:101130000E941D084091AC035091AD036091AE0335
:101140007091AF038091AB03813099F54C835B8341
:10115000AB0166277727842F83708860942F990FBF
:10116000990F990F907E892B8A8365E05695479554
:101170006A95E1F7498344E06F2D702F812F0E941B
:101180008507115048E068E0812F0E944C07D12C60
:10119000C12CEFEFCE1ADE0A812F0E942B07982F69
:1011A000987083FF14C0F2E3CF16D10491F797E053
:1011B00012C0CA0123E0969587952A95E1F78983A5
:1011C0004295440F407E4A831C821B82D4CF82E327
:1011D000C816D10461F3892F0F900F900F900F90D4
:1011E000DF91CF911F910F91FF90DF90CF90BF9033
:1011F000AF909F908F906F905F904F900895EF9277
:10120000FF920F931F93CF93DF938093030280E7A6
:1012100090E0A0E0B0E08093AC039093AD03A09386
:10122000AE03B093AF031092B9031092AB0386E004
:101230008093B0030FEF11E081EBE82E83E0F82EEE
:10124000F701E8018991819382E0C530D807D1F791
:101250000E943E0881110DC0809104028F3F09F069
:101260003FC010920402809100028F3FA9F51092B6
:10127000000280E790E0A0E0B0E08093AC039093A0
:10128000AD03A093AE03B093AF031092B9031092D5
:10129000AB0386E08093B003F80181918F01F701E1
:1012A00081937F01C017D107B9F70E943E088111D1
:1012B0000CC0809104028F3FD9F4109204028091F7
:1012C00000028F3F89F410920002DF91CF911F91AD
:1012D0000F91FF90EF9008958F5F80930002C9CF28
:1012E0008F5F80930402C5CF8F5F80930002EDCFA4
:1012F0008F5F80930402E9CFFF920F931F93CF93E8
:10130000DF93C82FF62E172F042F80E591E00E945F
:10131000F00360E08091BB030E94C40683E00E945A
:1013200024078C2F0E942407CF2DD12F0C0F1D2FA7
:10133000111DC017D10729F080E00E94240789936E
:10134000F8CF61E08091BB03DF91CF911F910F91A6
:10135000FF900C94C4060F931F93CF93DF9300D09C
:1013600000D0CDB7DEB7182F1092AB031092AC03AC
:101370001092AD031092AE031092AF0344E0BE0191
:101380006F5F7F4F0E947C092A81898138E0839FAB
:10139000C0011124422F50E065E0559547956A95AC
:1013A000E1F7840F951F092E000CAA0BBB0B80934D
:1013B000AC039093AD03A093AE03B093AF0323FFB0
:1013C00029C032E0880F991FAA1FBB1F3A95D1F799
:1013D0002370820F911DA11DB11DBA2FA92F982F27
:1013E00088272B81820F911DA11DB11DBA2FA92F16
:1013F000982F88272C81820F911DA11DB11D8093EC
:10140000AC039093AD03A093AE03B093AF0381E020
:101410008093AB038FEF810F0E942B07082F84E08E
:10142000810F0E942B0703FF16C091E09093B90330
:10143000482F4F704093B00361EB73E085E0810F5C
:101440000E947C090F900F900F900F90DF91CF9129
:101450001F910F9108951092B903EACF8091BF03B5
:101460009091C0030097B9F0DC011296ED91FC91C8
:10147000F093C003E093BF03309771F0158214829C
:101480000E940C188091BD039091BE030197909328
:10149000BE038093BD0308951092C2031092C1034E
:1014A000EFCFCF93DF93109210028091BD03909104
:1014B000BE031816190674F4E091BF03F091C0033F
:1014C000309711F0C081D1810E942E0ACE010E9476
:1014D0000C18EBCFDF91CF910895FC010190002013
:1014E000E9F73197AF01481B590BBC0182E192E04B
:1014F0000C947C058F929F92AF92BF920F931F9393
:10150000CF93DF93CDB7DEB7A1970FB6F894DEBFC8
:101510000FBECDBF19A2423008F44AE08E010F5D24
:101520001F4F842E912CB12CA12CA50194010E9457
:101530003B19E62FB901CA01EA30F4F4E05DD801A5
:10154000EE938D01232B242B252B79F790E080E05F
:10155000109719F0CD010E946D0AA1960FB6F8946C
:10156000DEBF0FBECDBFDF91CF911F910F91BF9016
:10157000AF909F908F900895E95CE1CF0C946D0A35
:101580008BE191E00C946D0ACF93DF93D0E0C0E043
:10159000009719F00E946D0AEC010E94C00A8C0F9E
:1015A0009D1FDF91CF910895FF920F931F93CF93CB
:1015B000DF9300D01F92CDB7DEB7882309F45AC05D
:1015C0008EE191E00E94BE0A80917703811155C09F
:1015D00084E291E00E94BE0A6091780370917903E1
:1015E00090E080E040E10E947A0A8FE191E00E9461
:1015F000BE0A60917A0370917B0390E080E040E145
:101600000E947A0A8FE191E00E94BE0A60918403F1
:1016100070E090E080E040E10E947A0A8FE191E082
:101620000E94BE0AF12C80918403F81648F5EF2D34
:10163000F0E0EA58FC4F8785982F92959F70906351
:101640009A330CF0995F99838F7080638A3308F026
:10165000895F8A831B82CE0101960E94BE0A0FB663
:10166000F894DEBF0FBECDBF8FE191E00E94BE0AAD
:10167000F394D9CF81E291E0A5CF87E291E0AACFA0
:101680000E94C00A0F900F900F90DF91CF911F9191
:101690000F91FF900895CF93DF93CFB7F89492E026
:1016A00095BD16BC4F99FCCF86B58E32D8F383E03A
:1016B00085BD9FB7F89486BD5E9886B58E32E8F3F7
:1016C0005E9A86B58333E8F3D2E0D5BD9FBF8091A3
:1016D00077030E941F0480917803909179030E9400
:1016E00000058091AA030E941F0480917A039091C3
:1016F0007B030E9400058091AA030E941F040E94A0
:10170000C30481111FC0CFBFC1E08091A90388230A
:1017100069F08AE291E00E94BE0A6C2F70E090E0CE
:1017200080E040E10E947A0A0E94C00A92E095BDE2
:1017300016BC4F99FCCF86B58E32D8F38C2FDF9133
:10174000CF9108951092AA033FB7D5BD84E09EE0E3
:1017500041E016BC5E9893FF1BC02091AA0324278A
:101760002093AA0326B52832E8F35E9A26B52D34D5
:10177000E8F3990F815069F73FBF8091AA030E9457
:101780001F040E94C304811107C0CFBFC2E0BDCFB8
:1017900026B52A34E8F3E9CF809184030E94E0045F
:1017A0008091AA030E941F040E94C304D0E081110B
:1017B00004C0CFBFC3E0A9CFDF5F80918403D817F7
:1017C00078F4ED2FF0E0EA58FC4F87850E94E004A2
:1017D0008091AA030E941F040E94C3048111ECCFD0
:1017E000CFBF8091A903882319F080E00E94D40A1A
:1017F000C0E0A4CF0E9422050C944B0B8F929F92C5
:10180000AF92BF92CF92DF92EF92FF920F931F930E
:10181000CF93DF9300D0CDB7DEB720911002222303
:1018200009F48EC02091BD033091BE032F303105E5
:101830000CF086C04091CB035091CC039E012F5FEA
:101840003F4F4115510509F051C02F5C33403A8399
:10185000298329813A812F3F310509F00CF470C0AA
:101860007C01C62ED12CC60123E0629F800D911D04
:1018700011244E960E9470178C016CE271E00E9458
:10188000341A4AE065E072E0C7010E94C618BC0144
:10189000C8010E94291A63E571E0C8010E94291A53
:1018A00085E8A82E83E0B82EF12CE12C460181E0DA
:1018B000881A9108EC14FD04E4F4F50181915F01AC
:1018C0004AE065E072E090E00E94B318BC01C801F4
:1018D0000E94291AE814F90429F068E371E0C801AC
:1018E0000E94291AFFEFEF1AFF0AE4CF241B350BE1
:1018F000AECF6AE371E0C8010E94291A86E090E049
:101900000E947017FC0111830083138212821582DA
:101910001482A091C103B091C203109701F5909376
:10192000C0038093BF03F093C203E093C10380918F
:10193000BD039091BE0301969093BE038093BD03B7
:101940000F900F90DF91CF911F910F91FF90EF902B
:10195000DF90CF90BF90AF909F908F900895B58308
:10196000A48313969C938E931297DDCF1F920F92B0
:101970000FB60F9211242F933F934F935F936F9362
:101980007F938F939F93AF93BF93EF93FF9382E1E6
:1019900092E00E94FB05FF91EF91BF91AF919F9163
:1019A0008F917F916F915F914F913F912F910F9008
:1019B0000FBE0F901F9018951F920F920FB60F92A7
:1019C00011242F938F939F93EF93FF93E091220223
:1019D000F09123028081E0912802F091290282FD9A
:1019E0001BC0908180912B028F5F8F7320912C02FE
:1019F000821741F0E0912B02F0E0EE5EFD4F958FF3
:101A000080932B02FF91EF919F918F912F910F90D7
:101A10000FBE0F901F9018958081F4CF1F920F92E8
:101A20000FB60F9211242F933F938F939F93AF93F1
:101A3000BF9380915F0190916001A0916101B0918D
:101A4000620130915E0123E0230F2D3758F5019696
:101A5000A11DB11D20935E0180935F0190936001F1
:101A6000A0936101B093620180915A0190915B0152
:101A7000A0915C01B0915D010196A11DB11D809303
:101A80005A0190935B01A0935C01B0935D01BF91FB
:101A9000AF919F918F913F912F910F900FBE0F901B
:101AA0001F90189526E8230F0296A11DB11DD2CFD5
:101AB0008091BF039091C003009799F0FC012281AF
:101AC00033813093C0032093BF030E940C18809190
:101AD000BD039091BE0301979093BE038093BD0315
:101AE000E7CF8091C5039091C6030C940C18109217
:101AF00015021092140288EE93E0A0E0B0E080930B
:101B0000160290931702A0931802B09319028DE069
:101B100091E0909313028093120285EC90E09093F1
:101B20001F0280931E0284EC90E090932102809328
:101B3000200280EC90E0909323028093220281ECBB
:101B400090E0909325028093240282EC90E09093A1
:101B500027028093260286EC90E0909329028093DE
:101B6000280210922B0210922C0210922D02109239
:101B70002E028DE080936F038FEF9FEF90937F0392
:101B800080937E0390938103809380038AE0809307
:101B9000BB0361E00E94C40661E08091BB030E9428
:101BA000F2061092C4031092C3031092C60310925F
:101BB000C5031092C8031092C7031092CA03109273
:101BC000C90361E070E090E080E00E946319009733
:101BD000E9F09093C6038093C5031092C803109256
:101BE000C7032091C9033091CA03232B11F4FC01D0
:101BF00010821092CA031092C9036DE171E08091C6
:101C0000C5039091C6030E94341A14C08091C50385
:101C10009091C603009711F00E940C181092C60311
:101C20001092C5031092CA031092C9031092C80300
:101C30001092C7031092BE031092BD031092C0030E
:101C40001092BF031092C2031092C1030895CF9364
:101C5000DF9300D000D01F92CDB7DEB7789484B563
:101C6000826084BD84B5816084BD85B5826085BD98
:101C700085B5816085BD80916E00816080936E0026
:101C80001092810080918100826080938100809118
:101C900081008160809381008091800081608093C9
:101CA00080008091B10084608093B1008091B00089
:101CB00081608093B00080917A00846080937A0084
:101CC00080917A00826080937A0080917A008160AE
:101CD00080937A0080917A00806880937A001092D5
:101CE000C1000E94C9035A985C985D98539A5E9A05
:101CF0005B985F98569A289881E090E09093A603AD
:101D00008093A5031092A70380E391E0909383034F
:101D10008093820380E491E090937D0380937C0321
:101D200080E692E090937F0380937E03109271038C
:101D30001092700310927503109274031092730343
:101D4000109272031092A8030E94510A1092C403C9
:101D50001092C30360E089E00E94F2062FB72B8344
:101D6000F89480916301811127C0E0E9F0E084914B
:101D7000E4EAF0E09491E82FF0E0EE0FFF1FEE5858
:101D8000FF4FA591B491EC91E92321F461E08AE041
:101D90000E94C40661E08AE00E94F2068CB5806170
:101DA0008CBD8CB580648CBD61E08DE00E94F20634
:101DB00061E08BE00E94F206809163018F5F809367
:101DC00063013B813FBF80E591E00E94F00360E04A
:101DD0008091BB030E94C40680EC0E94240761E04E
:101DE0008091BB030E94C40683E290E00197F1F763
:101DF00080E48093BC0380E80E94730781117FC058
:101E000061E88AE20E941D0865EE89E20E941D08D1
:101E100063E888E20E941D0820E030E0A90161E04B
:101E200080E20E94B30720E030E0A90161E084E293
:101E30000E94B30720E030E0A90161E080E00E9449
:101E4000B30720E030E0A90160E084E00E94B3071E
:101E500020E030E0A90161E088E00E94B30720E0C3
:101E600030E0A90160E080E10E94B30720E030E0AB
:101E7000A90161E084E10E94B30720E030E0A901FC
:101E800060E088E10E94B30780E38B8360E08B8190
:101E90000E941D0860E08B81805F0E941D0860E049
:101EA0008B81805E0E941D089B819F5F9B839E3378
:101EB00069F760E080E60E941D0860E080E70E940C
:101EC0001D0863E08BE20E941D086CE38CE00E9419
:101ED0001D0860E08DE00E941D0844E064E680E695
:101EE0000E944C0740E060E680E70E944C0780912A
:101EF000BC030E947307882311F40C94671780E8D1
:101F00000E94730781110CC020E030E04CE157E0E3
:101F100060E080E20E94B3078091BC030E947307D7
:101F200080E00E94E30781E00E94E30780E80E94CE
:101F3000730781110CC020E030E04CE157E060E015
:101F400084E20E94B3078091BC030E94730782E081
:101F50000E94E30783E00E94E30784E00E94E30716
:101F600085E00E94E3071092BC0380E00E947307A3
:101F700001E010E034E0732E42E0C42ED12C53E097
:101F8000A52EB12C189B84C78091FE01811105C03C
:101F900081E08093FE010E94C90383E085BD16BCE9
:101FA0004F99FECF86B58031D8F182E085BD109281
:101FB0007603EFB7EB83F89481E00E94F30321E00E
:101FC000892B09F420E020937703809176038823FE
:101FD00029F0FB81FFBF21E02B8310C08CE00E9421
:101FE000F3039093790380937803309176033C83D5
:101FF0003323B9F18B818FBF91E09B838091A9033B
:10200000882371F08DE391E00E94BE0AEB816E2F70
:1020100070E090E080E04AE00E947A0A0E94C00AE4
:1020200082E192E00E94DB052091F9011816190661
:102030000CF02BC321112BC382E192E00E94B90561
:102040009091F801E92FF0E0ED50FE4F8A3009F44D
:1020500015C380839F5F953008F40DC37092F8011B
:10206000DFCFE090AA03F12C81E00E94F303E81691
:10207000F90629F0EB81EFBFF3E0FB83BFCF8CE0E3
:102080000E94F30390937B0380937A03E090AA036A
:10209000F12C81E00E94F303E816F90629F02B8168
:1020A0002FBF34E03B83AACF80917A0390917B03CA
:1020B00020917C0330917D038217930721F42091B6
:1020C000A803222339F020917E0330917F038217E9
:1020D0009307B1F480E00E941F0481E08C8384E0C8
:1020E0000E94F303E090AA03F12C81E00E94F30325
:1020F000E816F90649F09B819FBFE5E0EB837ECFB0
:1021000081E00E94F303EBCFFC81FF23A9F080E084
:102110000E941F0488E00E94F30380938403E090F0
:10212000AA03F12C81E00E94F303E816F90641F0BE
:102130002B812FBF36E0B6CF81E00E94F303EACFB8
:102140008C81882361F080E00E941F0480918403C9
:10215000612C813278F09B819FBFE7E0CFCF81E097
:102160000E94F303F3CF3C813323E9F080E00E9427
:102170001F046394809184036816C8F488E00E9469
:10218000F303E62DF0E0EA58FC4F8787E090AA03BE
:10219000F12C81E00E94F303E816F90621F3FB819C
:1021A000FFBF28E019CF81E00E94F303E2CF8B81CB
:1021B0008FBF8091A903882319F081E00E94D40A7F
:1021C00081E080931102D092A603C092A503809172
:1021D0007803909179038033914009F439C08EE1FE
:1021E0008093A7038091700390917103019709F484
:1021F00074C61092A6031092A503F090A703FF20C7
:1022000009F4F6C1EFEFEF0DEC3108F099C0F0E002
:10221000E45FFE4E0C945D1907128311DC110C1261
:102220000C121D122A1233126112A011071207128A
:10223000A011A011A011A011A011A011A011A01116
:10224000A011A011A011A011A011A0113C121112F7
:1022500080917A0390917B03803421E0920761F0B2
:102260008F3F3FE0930741F08033E2E09E0721F08B
:102270008036924009F044C061E085E197E00E9419
:102280002F048093A703811107C065E08BE696E0D9
:102290000E9471048093A7038091A703811107C056
:1022A00064E083EE95E00E9471048093A70380911F
:1022B000A703811107C063E087E795E00E942F0420
:1022C0008093A7038091A703811107C065E088EC84
:1022D00094E00E9499048093A703809172039091E7
:1022E0007303892B09F089CFF090A703F1108ACFEF
:1022F00063E08FE594E00E9499048093A7037DCF6B
:102300001092A7037ACF1092A6031092A503809192
:10231000720390917303892B09F0E9C080917403D3
:1023200090917503039799F41093730300937203CC
:1023300010937103009370031093A6030093A503F9
:102340008091720390917303892B09F0D0C0809122
:10235000A5039091A603029759F480917A03909176
:102360007B038033914021F01092A6031092A503C5
:1023700020917403309175033D832C832130310506
:1023800009F0B0C08091700390917103029709F039
:10239000AEC087E493E00E94FA0B8C819D819093FC
:1023A0007303809372039093710380937003B092D0
:1023B0007503A09274039BC0809182039091830364
:1023C000892B41F480917803909179039093830352
:1023D00080938203209186032B838CE394E00E94F8
:1023E00022053B81309386030E944B0B60917E0354
:1023F00070917F0389E194E00E9451058B81809365
:1024000086030E944B0BD0927103C092700310920E
:10241000A6031092A50394CF109375030093740341
:10242000F6CF8091720390917303892B09F05FC0FE
:1024300086EF93E00E94FA0BEACF1092A603109267
:10244000A50360E672E083ED93E00E9451050E94CF
:102450004B0B76CF1092A6031092A50360E672E0B4
:1024600080EB93E0F2CF1092A6031092A50360E6F2
:1024700072E08DE893E0E9CF8091FC019091FD013D
:10248000009749F41092A6031092A5031093FD0142
:102490000093FC0155CF8230910569F41093FB0144
:1024A0000093FA016091840380917A0390917B03F9
:1024B0000E94FE0B45CF01969093FD018093FC0195
:1024C0003FCF6091840380917A0390917B030E94B7
:1024D000FE0B1092A6031092A50360E672E08AE656
:1024E00093E0B3CFEC81FD81329709F460CF809106
:1024F000FA019091FB0118161906ACF48130910590
:1025000009F037C060E672E084E293E00E94510572
:102510000E944B0B8091FA019091FB0101969093E0
:10252000FB018093FA013EE1F3120AC0809170032F
:1025300090917103019721F01092A6031092A503C8
:10254000E0916F03EF3008F053C0F0E0E655FD4E28
:102550000C945D19EF1218131B131E132113F312A1
:10256000241318131E13211324132413EF122413FE
:10257000241382309105A9F460E672E08EED92E0BA
:102580000E9451050E944B0B60E672E08BEB92E0DB
:102590000E9451050E944B0B60E672E088E992E0D0
:1025A000B5CF8330910539F424E030E03093FB015E
:1025B0002093FA01B8CF049709F0B5CF60E672E036
:1025C00081E093E00E9451050E944B0B1092FB01A9
:1025D0001092FA011092FD011092FC01A4CF85E740
:1025E00092E00E94FA0B80916F038F5F80936F03DC
:1025F0008091A5039091A6038130910541F1029746
:1026000009F00ECD80917803909179038033E1E059
:102610009E0709F580917A0390917B036091840372
:102620008033F2E09F0709F4FBCC0E94FE0BF8CC4C
:1026300082E592E0D6CF8FE292E0D3CF8CE092E0B9
:10264000D0CF89EE91E0CDCF86EC91E0CACF80E08B
:102650000E94FF08E5CC8033924009F0E1CC8091E4
:102660001002882309F4DCCC6091840380917A0302
:1026700090917B03DACF9093F801D2CC1082109224
:10268000F80131E03093F901CBCC222399F080910D
:10269000F3018D3409F0B8C08091F401813309F061
:1026A000A8C083EA91E00E9422050E944B0B5B9A2E
:1026B0001092F9018091700390917103019709F0D4
:1026C0005AC380911002882309F455C380910C02EB
:1026D00090910D022091BD033091BE031216130696
:1026E0000CF0B6C1893EE3E09E0708F4B1C182E177
:1026F00092E00E94A9058F3F91050CF0CBC2E7EB59
:10270000F0E08491E3EAF0E0F491FC83EFE8F0E09C
:10271000F491FB83F111DFC280E591E00E94F003A8
:1027200060E08091BB030E94C40680EA0E942407F7
:1027300080E00E9424078B8361E08091BB030E94AC
:10274000C4062B8120FF24C381E60E94AB0940E030
:1027500061E08CE20E944C078091AB03882389F0F2
:102760008091AC039091AD03A091AE03B091AF0303
:10277000B0688093AC039093AD03A093AE03B09385
:10278000AF038091B903882389F08091AC039091C5
:10279000AD03A091AE03B091AF03B0648093AC03DE
:1027A0009093AD03A093AE03B093AF038091AC03BD
:1027B0009091AD03A091AE03B091AF0380937201ED
:1027C00090937301A0937401B09375018091B0034D
:1027D00080937101A1EBB3E0E9E6F1E090E09F01A5
:1027E00029563140281739070CF0DBC22D9121936F
:1027F000F6CF803309F05CCF80E891E00E9422059B
:102800000E944B0B5B9854CF823509F06AC08091CF
:10281000F4018233F9F48091BD039091BE03181640
:10282000190674F4E091BF03F091C003309711F0E2
:10283000408051800E942E0AC2010E940C18EBCFEA
:1028400010920D0210920C0210926F0381E080939F
:1028500010022ECF813399F51092100210920D02C2
:1028600010920C028091BD039091BE0318161906B8
:1028700074F4E091BF03F091C003309711F0208011
:1028800031800E942E0AC1010E940C18EBCF80916A
:10289000700390917103019709F40ACF10927103AC
:1028A00010927003109275031092740310927303C8
:1028B0001092720382EC90E00E94FA0BF9CE803302
:1028C00009F0F6CE10927103109270031092750306
:1028D0001092740310927303109272030E94510AB3
:1028E000E9CF843449F484EF91E00E9495188093F5
:1028F000F2018093F101DCCE8634C9F484EF91E0DB
:102900000E9495188B838093F2018DE591E00E94DF
:1029100022058091F101809388038B8180938A0343
:102920000E944B0B8091F2018093F001C1CE84355F
:1029300071F584EF91E00E9495188B838093F201EA
:1029400085EE90E00E9422058091F101809388033A
:102950008091F00180938A039B8190938B030E9466
:102960004B0B85EE90E00E9422058091F10180934F
:1029700088038091F00180938A038091F201809313
:102980008B0381E080938C030E944B0B91CE8334A8
:1029900049F484EF91E00E9495188093F2010E941F
:1029A000FF0886CE833559F484EF91E00E94951894
:1029B0008093F2018AE391E00E942205E5CF8635FB
:1029C00009F584EF91E00E9495188093F20181301F
:1029D00009F06ECEE8E0F1E0FD83EC83EC81FD814F
:1029E0006491662361F082E192E00E941A062C81D4
:1029F0003D812F5F3F4F3D832C83892B79F70E94C8
:102A0000C00A56CE883509F053CE109210021092AB
:102A10000D0210920C028091BD039091BE03181616
:102A200019068CF4E091BF03F091C003309721F0B8
:102A3000808191819A8389830E942E0A89819A815B
:102A40000E940C18E8CF0E947E060E94C90330CE77
:102A5000019690930D0280930C0280910E0290914A
:102A60000F028838F3E19F0708F42FC182E192E05A
:102A70000E94A9058F3F91050CF441CE3FB73B83DF
:102A8000F89464E471E080EA91E00E94341A809145
:102A90009F014AE065E971E090E00E94B318BC0133
:102AA00080EA91E00E94291A68E371E080EA91E0EF
:102AB0000E94291A809194014AE065E971E090E052
:102AC0000E94B318BC0180EA91E00E94291A68E3D1
:102AD00071E080EA91E00E94291A809193014AE016
:102AE00065E971E090E00E94B318BC0180EA91E0D2
:102AF0000E94291A68E371E080EA91E00E94291A95
:102B0000809192014AE065E971E090E00E94B3187B
:102B1000BC0180EA91E00E94291A68E371E080EA32
:102B200091E00E94291A809191014AE065E971E0E3
:102B300090E00E94B318BC0180EA91E00E94291A3B
:102B400068E371E080EA91E00E94291A8091900187
:102B50004AE065E971E090E00E94B318BC0180EAA8
:102B600091E00E94291A68E371E080EA91E00E94F6
:102B7000291A80918F014AE065E971E090E00E9496
:102B8000B318BC0180EA91E00E94291A68E371E061
:102B900080EA91E00E94291A80918E014AE065E95D
:102BA00071E090E00E94B318BC0180EA91E00E94BD
:102BB000291A68E371E080EA91E00E94291A809165
:102BC0008D014AE065E971E090E00E94B318BC0114
:102BD00080EA91E00E94291A68E371E080EA91E0BE
:102BE0000E94291A4AE065E971E08091C30390913F
:102BF000C4030E94B318BC0180EA91E00E94291A24
:102C000068E371E080EA91E00E94291A80918C01CA
:102C10004AE065E971E090E00E94B318BC0180EAE7
:102C200091E00E94291A68E371E080EA91E00E9435
:102C3000291AE6E7F1E090E080E021913191820FDE
:102C4000931F2AE831E02E173F07B9F76AE070E0DA
:102C50000E942719CB0170938B0160938A014AE08F
:102C600065E971E00E94B318BC0180EA91E00E941E
:102C7000291A6AE371E080EA91E00E94291A3B81F7
:102C80003FBF80EA91E00E94C40A10920F021092A6
:102C90000E0235CDE091BF03F091C003309711F0E3
:102CA00080809180C4010E94C40A0E942E0AC4013F
:102CB0000E940C1810920D0210920C0228EE33E0C4
:102CC00030930F0220930E021ACD019690930F02BB
:102CD00080930E0214CD81110E949B063B81E32F4D
:102CE000F0E0EE0FFF1FE458FF4FA591B4918C91D7
:102CF0009C81982309F410CD4D9B20C080916701E1
:102D000081111CC081E0809367018091660185304C
:102D100008F4B4C01092660180916401909165013D
:102D2000893BFBE09F0750F08D5A9D408F3C9740B8
:102D300008F09FC01093C4030093C3034D991BC0B8
:102D400080916701882331F010926701109265012C
:102D500010926401809164019091650189393AE390
:102D6000930708F48FC01092C4031092C30310920B
:102D700065011092640180E090E0892B09F402C99A
:102D80000E94E705882309F4F5C80E940000F2C8F4
:102D9000EB81E1FF06C081E70E94AB0940E062E001
:102DA000D8CC8091720190917301A0917401B0917F
:102DB000750181349105A105B10509F450C078F57C
:102DC00083329105A105B10509F441C08034910514
:102DD000A105B10509F090CF80916A0180939F0110
:102DE00080916801E82FF0E0EE0FFF1FEA58FE4FD8
:102DF00020916D0130E03183208390916E0190939A
:102E0000940190916F019093930190917001909330
:102E10009201893008F58F5F809368016DCF80380B
:102E20009105A105B10501F182389105A105B10512
:102E300009F062CF8091690180938F0180916A01CE
:102E400080938E0180916D0180938D0155CF80918B
:102E5000700180938C0150CF109268014DCF80910A
:102E60006B018093910148CF80916C018093900118
:102E700043CF1092C4031092C30360CF8F5F80933F
:102E800066015CCF0196909365018093640173CFD6
:102E9000189971CF8091FE01882309F46CCF1092AC
:102EA000FE011092C4031092C303109215021092F7
:102EB000140282E192E00E94DB05892B29F082E175
:102EC00092E00E94B905F5CF0E947E0654CF8DE1B5
:102ED00091E00E94BE0A0C947F0F8EE1F82E30CA5A
:102EE0000F931F93CF93DF938230910510F482E00C
:102EF00090E0E091CD03F091CE0330E020E0B0E02F
:102F0000A0E0309799F42115310509F44AC0281B37
:102F1000390B24303105D8F58A819B816115710503
:102F200089F1FB0193838283FE0111C040815181AD
:102F30000281138148175907E0F04817590799F49F
:102F4000109761F012960C93129713961C93329679
:102F5000CF01DF91CF911F910F9108950093CD0381
:102F60001093CE03F4CF2115310551F042175307CA
:102F700038F0A901DB019A01BD01DF01F801C1CFE1
:102F8000EF01F9CF9093CE038093CD03CDCFFE0117
:102F9000E20FF31F819391932250310939832883E3
:102FA000D7CF2091CB033091CC03232B41F4209138
:102FB0000201309103013093CC032093CB03209185
:102FC0000001309101012115310541F42DB73EB7C3
:102FD0004091040150910501241B350BE091CB0376
:102FE000F091CC03E217F307A0F42E1B3F0B281738
:102FF000390778F0AC014E5F5F4F2417350748F072
:103000004E0F5F1F5093CC034093CB03819391935A
:103010009FCFF0E0E0E09CCFCF93DF930097E9F003
:10302000FC01329713821282A091CD03B091CE039E
:10303000ED0130E020E01097A1F420813181820F72
:10304000931F2091CB033091CC032817390709F047
:1030500061C0F093CC03E093CB03DF91CF9108954F
:10306000EA01CE17DF07E8F54A815B819E01411531
:103070005105B1F7E901FB83EA8349915991C40FE6
:10308000D51FEC17FD0761F4808191810296840FB2
:10309000951FE90199838883828193819B838A8329
:1030A000F0E0E0E012968D919C9113970097B9F5AE
:1030B0002D913C911197CD010296820F931F209183
:1030C000CB033091CC032817390739F6309751F5E7
:1030D0001092CE031092CD03B093CC03A093CB03F8
:1030E000BCCFD383C28340815181840F951FC81701
:1030F000D90761F44E5F5F4F88819981480F591F4E
:10310000518340838A819B8193838283211531057A
:1031100009F0B0CFF093CE03E093CD039ECFFD0135
:10312000DC01C0CF13821282D7CFFC0188279927F8
:10313000E89421912032E9F3293010F02E30C8F3C1
:103140002B3241F02D3239F4689404C00E94BE182D
:10315000820F911D219120532A30C0F31EF49095C7
:1031600081959F4F0895BB274A3031F4992322F46B
:10317000BDE2909581959F4F0C94C7187AE0979F78
:10318000902D879F802D910D11240895BB27FB0161
:103190005527AA27880F991FAA1FA41710F0A41B50
:1031A00083955051B9F7A05DAA3308F0A95DA193AA
:1031B000009779F7B111B1931192CB010C94E018FB
:1031C000DC01FC01672F71917723E1F7329704C08E
:1031D0007C916D9370836291AE17BF07C8F3089519
:1031E0002F923F924F925F926F927F928F929F9217
:1031F000AF92BF92CF92DF92EF92FF920F931F9305
:10320000CF93DF93CDB7DEB7CA1BDB0B0FB6F894B5
:10321000DEBF0FBECDBF09942A88398848885F84F5
:103220006E847D848C849B84AA84B984C884DF8066
:10323000EE80FD800C811B81AA81B981CE0FD11D4A
:103240000FB6F894DEBF0FBECDBFED010895AA1BE7
:10325000BB1B51E107C0AA1FBB1FA617B70710F081
:10326000A61BB70B881F991F5A95A9F780959095B3
:10327000BC01CD010895A1E21A2EAA1BBB1BFD01C2
:103280000DC0AA1FBB1FEE1FFF1FA217B307E40745
:10329000F50720F0A21BB30BE40BF50B661F771F9D
:1032A000881F991F1A9469F760957095809590957D
:1032B0009B01AC01BD01CF010895EE0FFF1F0590EA
:1032C000F491E02D0994B0E0A0E0E9E6F9E10C9476
:1032D000F2188C01009751F4CB010E9470178C01F9
:1032E000C801CDB7DEB7E0E10C940E19FC01E60F82
:1032F000F71F9C0122503109E217F30708F49DC023
:10330000D901CD91DC911197C617D70798F0C53038
:10331000D10530F3CE0104978617970708F3C61B33
:10332000D70B2297C193D1936D937C93CF010E94C9
:103330000C18D6CF5B01AC1ABD0A4C018C0E9D1E39
:10334000A091CD03B091CE03512C412CF12CE12C56
:10335000109731F58091CB039091CC038815990596
:1033600009F05CC04616570608F058C0809100016D
:1033700090910101009741F48DB79EB740910401EF
:1033800050910501841B950BE817F90708F055C00B
:10339000F093CC03E093CB03F90171836083A0CF5A
:1033A0008D919C91119712966C90129713967C9028
:1033B0001397A815B90559F56C0142E0C40ED11C4C
:1033C000CA14DB0420F1AC014A195B09DA01129638
:1033D000159780F06282738251834083D9016D9387
:1033E0007C93E114F10471F0D7011396FC93EE93F2
:1033F000129776CF22968C0F9D1FF90191838083BF
:10340000F301EFCFF093CE03E093CD0369CF4816DD
:10341000590608F42C017D01D3019ACFCB010E94FB
:1034200070177C01009749F0AE01B8010E94201A84
:10343000C8010E940C18870153CF10E000E050CF64
:10344000FB01DC0102C001900D9241505040D8F7C1
:103450000895FB01DC010D900020E9F71197019020
:103460000D920020E1F70895FB01DC0101900D921F
:103470000020E1F7089513E0CEE9D3E004C0FE0197
:103480000E945D192196CF39D107C9F7F894FFCF73
:103490000000CF038000304050000000001A067C7E
:1034A00005A9055E06DB05B905CD050D0A003C2022
:1034B000003E200062200064200057007B2254223E
:1034C0003A312C2241223A002C005D7D0065727257
:1034D0006F723A007B2254223A322C2241223A3433
:0A34E0003039352C224D223A5B00F2
:00000001FF
